:10000000BEC20000DDC20000DBC20000D9C2000099
:10001000D7C20000D5C20000D3C20000D1C2000088
:10002000CFC20000CDC20000CBC20000C9C2000098
:100030000C94700DC5C20000C3C20000C1C2000014
:10004000BFC20000BDC20000BBC20000B9C20000B8
:10005000B7C20000B5C20000B3C20000F4C3000084
:10006000AFC20000ADC20000ABC20000A9C20000D8
:10007000A7C20000A5C20000A3C20000A1C20000E8
:100080009FC200009DC200009BC2000099C20000F8
:1000900097C2000095C2000093C2000091C2000008
:1000A0008FC200008DC200008BC2000089C2000018
:1000B00087C2000085C2000083C2000081C2000028
:1000C0007FC200007DC200007BC2000079C2000038
:1000D00077C2000075C2000073C2000071C2000048
:1000E0006FC2000000000A0B02090C0D0E08070386
:1000F00004010000000000000000000000000000FB
:1001000000000000000000000000000000000000EF
:1001100012111000000000000000000000000000AC
:100120000000000000000000000000002200250088
:1001300028002B002E0031003400020100000501D0
:1001400008010B0100002100240027002A002D00D7
:100150003000330001010000040107010A01050518
:100160000505070508080808020202020A0A08082D
:10017000040404040101010101010101030303035B
:1001800003030303040707070C0C0C0C0C0C0C0CEA
:100190000202020206060606060606060B0B0B0BFB
:1001A0000B0B0B0B01021020200808102040102020
:1001B000408002010201080402010102040810202B
:1001C0004080804020100804020180040201804029
:1001D0002010080402010804020101020408102092
:1001E00040800102040810204080CF93DF9300D0AC
:1001F00000D000D01F92CDB7DEB7E0918902F09118
:100200008A02F08010E000E0FF2029F00580F681EE
:10021000E02D008111819ED393D36C0180918502E2
:1002200090918602C816D90608F079C00E9482090A
:10023000D0928602C09285023AD600919602109121
:1002400097021A86198680E06801B1E1CB0ED11CB5
:100250000FB6F8940F92F801F28CFF2009F40AC14E
:10026000448D4423C1F050E086819781840F951F0F
:1002700097838683248135818217930720F08081BC
:10028000918197838683D80116966D917C91CE01DA
:1002900001960E94270FFA94F801F28E8085882338
:1002A00029F0C801089661D481116AD50F900FBE5C
:1002B000D980D7FCC2CF0C811D81D8011A968D91AF
:1002C0009C91892B19F0C8010296B4D339D37C01D3
:1002D0008091850290918602E816F90610F40E943A
:1002E0008209F0928602E0928502B9E0BD1508F419
:1002F000A4CFED2DDD0CFF0BD80152969C918827E1
:10030000EB57FE4F8F4F0C941F0F000200020002AC
:10031000350221022F020002000235022102D09292
:100320008602C0928502FF2079F1C016D106A0F1A5
:10033000BED5E0918902F0918A020580F681E02D18
:10034000E680F780C701029675D3D70152968C914B
:10035000529782FF15C01C966D917C91600F711FA2
:100360009801A601C7013DD3882319F0B801C70140
:10037000A3D7D7015096ED91FC91C70119955DCF98
:100380008E7FF701828BF5CFE0918702F091880292
:100390008081BB24B3948111B12CE0909602F0903F
:1003A00097020FB6F8940F92F701858D8F3F09F4ED
:1003B000158ED7015E968C915E978F3F11F45E96F5
:1003C0001C920F900FBEF701828D811112C06091B7
:1003D000340270913502645F7F4FC70141964ED35E
:1003E000C8018C199D09BB2011F08FEF9FEF6B2D79
:1003F00065D3C701F7D35BD581111FCFC1D41DCF02
:100400009160F801928BCA80DB80648575856C0DE4
:100410007D1D9601A701C801E4D2882309F40DCF00
:10042000D8015096ED91FC91C8011995F801828987
:1004300082FF03CF648575856C0D7D1DC8013CD797
:10044000FCCE9160F801928B6A817B81758764870D
:100450006E0D7F1D9701A701C801C3D2EECE91FD9D
:1004600004C0C8010E94FF0BE8CE9E7FD8015296BF
:100470009C93E3CE29853A85232B19F40F900FBE68
:10048000BCCE811109C0809198028E838091BE02FA
:100490009091BF0298878F830F900FBE5BD20FB6EB
:1004A000F8940F92D8015D968C915D978F3F11F46F
:1004B0005D961C92F801868D8F3F09F4168E0F9081
:1004C0000FBEBE01675F7F4FCE01069606D2811137
:1004D0001DC0C80145D28823A9F0E984FA8460913F
:1004E000340270913502645F7F4FC60144D261E0EF
:1004F000C701E4D2C80176D3DAD4811101C040D457
:1005000081E0A6CEC8016ED3D2D4FACFC8016AD397
:10051000CED4C80125D2882399F36FCE00E010E035
:100520008091360281110BC080919902823008F0CF
:1005300027D401151105A1F30E940000F1CF0FB6D9
:10054000F8940F92E0913C02F0913D02C681D78170
:10055000CE0102966FD280916B02815080936B0224
:10056000809136028150809336020F900FBE8F89A2
:10057000988D0E94FF0BCE010E94FF0BD1CF11245A
:100580001FBECFEFD1E2DEBFCDBF00E00CBF12E057
:10059000A0E0B2E0E2E7FEE100E00BBF02C007909E
:1005A0000D92A433B107D9F722E0A4E3B2E001C071
:1005B0001D92A43CB207E1F70E94720D0C94370F14
:1005C0001FCD90E0FC01EC55FE4F2491825A9E4FC6
:1005D000FC018491882399F090E0880F991FFC0119
:1005E000EC5BFE4FA591B491FC01E65DFE4F859159
:1005F00094918FB7F894EC91E22BEC938FBF089510
:10060000282F30E0F901EC51FF4F9491F901EC559E
:10061000FE4F4491225A3E4FF9012491222309F4BE
:1006200035C0992311F191509231F8F4E92FF0E09F
:100630008827E25EFC4F8F4F0C941F0F4F0353032C
:10064000300347034B03350356035C036003660323
:100650006A036E037403780335037C038203860305
:10066000809180008F7780938000E22FF0E0EE0F82
:10067000FF1FE65DFE4FA591B4918FB7F894EC9102
:10068000611148C040954E234C938FBF08958091CF
:1006900080008F7DE8CF80918000877FE4CF84B594
:1006A0008F7784BDE2CF84B58F7DFBCF8091B00082
:1006B0008F778093B000D9CF8091B0008F7DF9CF34
:1006C000809190008F7780939000CFCF80919000A1
:1006D0008F7DF9CF80919000877FF5CF8091A0002A
:1006E0008F778093A000C1CF8091A0008F7DF9CF3C
:1006F0008091A000877FF5CF809120018F77809334
:100700002001B3CF809120018F7DF9CF809120010E
:10071000877FF5CF4E2BB8CF3FB7F89480919002EA
:1007200090919102A0919202B091930226B5A89B5C
:1007300005C02F3F19F00196A11DB11D3FBFBA2F73
:10074000A92F982F8827BC01CD01620F711D811D33
:10075000911D42E0660F771F881F991F4A95D1F7B8
:100760000895E0918102F09182028081811107C099
:100770008FEF9FEF9093800280937F020895E09126
:100780008102F09182020580F681E02D0680F781DA
:10079000E02D82819381EECFFC01C08161E08C2F3E
:1007A0002FDFBADF4B015C0188EBC82E8BE0D82E1F
:1007B000E12CF12CB1DF681979098A099B09683E9F
:1007C000734081059105B0F3F1E0CF1AD108E1083B
:1007D000F10828EE820E23E0921EA11CB11CC11468
:1007E000D104E104F10431F760E08C2F09DFB2D0CD
:1007F00060E083E090E062D15AD38111CFCFC0D2C4
:10080000CDCF86E1DEDE87E1DCDE88E1DADE89E17C
:10081000D8DE6CE072E08BE192E00E94680C6AE046
:1008200072E081E292E00E94680C68E072E087E288
:1008300092E00E94680C66E072E08DE292E00E9415
:10084000680C0C94A90C1F920F920FB60F921124F2
:100850002F933F938F939F93AF93BF9380918C027D
:1008600090918D02A0918E02B0918F0230918B02F7
:1008700023E0230F2D3758F50196A11DB11D2093BC
:100880008B0280938C0290938D02A0938E02B09382
:100890008F028091900290919102A0919202B0916A
:1008A00093020196A11DB11D809390029093910235
:1008B000A0939202B0939302BF91AF919F918F91B9
:1008C0003F912F910F900FBE0F901F90189526E823
:1008D000230F0296A11DB11DD2CFFC01DB010FB683
:1008E000F8940F924091BE025091BF022D913C911D
:1008F00011972F3F3207E1F0818192816091980238
:100900007081761719F048175907C0F4481B590B26
:100910004217530788F4241B350B2D933C93809189
:10092000980280838091BE029091BF02928381835E
:1009300080E00F900FBE08951D921C9281E0F9CFC8
:100940000FB6F8940F928091BE029091BF020F9063
:100950000FBE0895809194028F5F80939402089552
:100960000FB6F8940F92FC01928D0F900FBE81E0AC
:10097000911180E008950F931F93CF93DF938C0123
:10098000FB0180819181D80113968F3F9807F1F484
:10099000E801AF81B88512968D919C91139793834E
:1009A0008283EC01FD83EC83B583A4831396FC93CF
:1009B000EE93129711870087F80180818F5F808303
:1009C000DF91CF911F910F910895D90112962D912A
:1009D0003C911397E9014881598184179507A8F73D
:1009E000DACFFC01738362839187808746175707AC
:1009F00088F0421B530B8485958548175907C0F42E
:100A0000BF016E5F7F4F8091870290918802B3DFB4
:100A100080E008954217530718F46217730740F4F3
:100A2000BF016E5F7F4F8091890290918A02EFCF64
:100A300081E00895CF93DF93FC01A085B185828189
:100A4000938124813581EC013D832C83C481D58140
:100A50009B838A8311968D919C9112978E179F0785
:100A600021F41296DC93CE931197118610868C9107
:100A700081508C938C91DF91CF910895CF93DF9328
:100A80009C01FB01DC011196CD91DC91D383C283E3
:100A90008C819D81958384838C819D81DC0113965B
:100AA0007C936E9312977D836C8331872087F90145
:100AB00080818F5F8083DF91CF910895FF920F93A4
:100AC0001F93CF93DF93EC01F62E0091BE0210919D
:100AD000BF0280913402909135020296ABDFCF3F86
:100AE000DC0781F4FF2071F06091340270913502CF
:100AF0006E5F7F4F86E792E0DF91CF911F910F915C
:100B0000FF90BCCFC00FD11FE0913402F0913502AD
:100B1000D383C2836091340270913502C017D1072C
:100B200060F480918302909184026E5F7F4FDF9129
:100B3000CF911F910F91FF901ECF809181029091D4
:100B400082026E5F7F4F17DF80917F02909180025B
:100B5000C817D90720F4D0938002C0937F02DF9199
:100B6000CF911F910F91FF9008950F931F93CF93F3
:100B7000DF93DC011596ED91FC91C681D7818E0142
:100B8000045F1F4FC80156DF80919402811123C07A
:100B90000A501109C8014EDF8E899091BD02981745
:100BA00010F48093BD02B9E08B9FC0011124B801FD
:100BB00087569D4FE0DEE0913402F09135029E8928
:100BC0008689891768F481E080936C02DF91CF9168
:100BD0001F910F910895B8018DE692E04FDFEBCFA2
:100BE00080E0F4CFEF92FF920F931F93CF93DF93A8
:100BF000EC010FB6F8940F921E8D7C0181E1E80E96
:100C0000F11C01E01116D4F08FEF8E8F0F900FBE04
:100C10000FB6F8940F921D8D7E0188E0E80EF11C4E
:100C200001E01116ACF08FEF8D8F0F900FBEDF91AA
:100C3000CF911F910F91FF90EF900895898988239C
:100C400019F3C70192DF811100936C021150DACFC2
:100C50008885882341F3C70188DF811100936C02E6
:100C60001150DFCFFC010396928381832FEF3FEF7A
:100C700034832383968385839087878310820895A6
:100C80005F926F927F928F929F92AF92BF92CF921C
:100C9000DF92EF92FF920F931F93CF93DF93782E03
:100CA000892E562E672E5A01922E132FE60165EAE1
:100CB00070E08F89988D0E94300F81E0A81AB108EA
:100CC000EF89F88DEA0DFB1D652D762DC60149963D
:100CD0009B01285F3F4FDB014D91BD01DC014D932E
:100CE000CD01AB0141505109DA014C91442319F077
:100CF0006217730781F718A20E8B09A31AA21B862D
:100D00001A861D8A1C8AD987C88784E090E0801BD8
:100D100091099D878C87DB8BCA8B1BA21CA21DA20D
:100D20001EA21FA27082DF0111978C9211971C9254
:100D300011971C92119780E88C9311971C92119730
:100D40001C9211971C9257979C9211971C93B697DF
:100D5000F983E883E114F10419F0F701D183C0832A
:100D6000DF91CF911F910F91FF90EF90DF90CF9087
:100D7000BF90AF909F908F907F906F905F900895FD
:100D80000F920FB6F8940F920BB60F920CB60F920B
:100D90001F9211242F923F924F925F926F927F92F7
:100DA0008F929F92AF92BF92CF92DF92EF92FF927B
:100DB0000F931F932F933F934F935F936F937F9363
:100DC0008F939F93AF93BF93CF93DF93EF93FF9353
:100DD000A0913402B09135020DB60D920EB60D926F
:100DE00080919402882321F081E080936C0230C0CE
:100DF00010926C02A0913402B0913502E09134025D
:100E0000F09135022D913C918789908D821793073F
:100E1000A8F0809134029091350280913402909133
:100E20003502279A2F9A2FEF87EA91E621508040CA
:100E30009040E1F700C000001F9AF5CFE091A702B3
:100E4000F091A802868197819093350280933402B5
:100E5000A0913402B0913502CD91CDBFDD91DEBFBE
:100E6000FF91EF91DF91CF91BF91AF919F918F91C2
:100E70007F916F915F914F913F912F911F910F91B2
:100E8000FF90EF90DF90CF90BF90AF909F908F90AA
:100E90007F906F905F904F903F902F901F900F909A
:100EA0000CBE0F900BBE0F900FBE0F9008957F9257
:100EB0008F929F92AF92BF92CF92DF92EF92FF926A
:100EC0000F931F93CF93DF930FB6F8940F928091F7
:100ED000940281508093940280919402882389F037
:100EE00080E00F900FBEDF91CF911F910F91FF9087
:100EF000EF90DF90CF90BF90AF909F908F907F90BA
:100F0000089580916B02882359F3D0E0C0E029E076
:100F1000F22EEE24E39426C0E0917202F091730267
:100F2000C681D781CE010C9685DD8E010E5F1F4FE5
:100F3000C80180DD8E899091BD02981710F48093CE
:100F4000BD028F9DC0011124B80187569D4F13DD4E
:100F5000E0913402F09135029E898689981710F04D
:100F6000E0926C0280916D028111D6CFCD2B09F0F9
:100F7000F8DBE0906902F0906A02E114F10409F4F0
:100F8000ABC089E0A82E77247394CC24CA94DC2CBF
:100F90008091940281118EC0C091BE02D091BF0297
:100FA0002196D093BF02C093BE022097B1F48091E6
:100FB00081029091820220918302309184023093C9
:100FC0008202209381029093840280938302809115
:100FD00098028F5F80939802C4DB80917F0290918A
:100FE0008002B12CC817D90708F058C0E09134022C
:100FF000F0913502E689AE9EF0011124E756FD4FCF
:101000008081823010F0BB24B39480916C028111F6
:1010100003C0BB2009F457C070926C0254C0E09129
:101020008102F09182020580F681E02D0681178110
:10103000D80112968D919C91C817D90728F49093E6
:10104000800280937F02D2CF4801B2E08B0E911CC8
:10105000C401F0DCF80184899589892B19F0C80155
:101060000C96E8DCD80156968C919091BD029817A9
:1010700010F48093BD028A9DC0011124B4018756EB
:101080009D4F79DCE0913402F0913502D8015696FB
:101090009C918689981710F0BB24B394E09181024B
:1010A000F091820280818111BACFD0928002C092E9
:1010B0007F029CCF8091690290916A020196909381
:1010C0006A0280936902B1E0EB1AF10809F060CF7F
:1010D00010926A021092690280916C02882309F4CE
:1010E000FFCE4EDE81E0FDCEAF92BF92CF92DF9277
:1010F000EF92FF920F931F93CF93DF9300D01F9235
:101100001F92CDB7DEB78C017B011D821C8280E06F
:10111000680128E0C20ED11C0FB6F8940F92F801B6
:10112000228D938D291708F073C0D28C448D411104
:1011300056C080819181892B11F080E009C0E48044
:10114000F580E114F10411F580E0F80115821482B4
:10115000D394F801D28E9189992319F0C801419650
:1011600004DD81110DDE0F900FBE81E00F900F9016
:101170000F900F900F90DF91CF911F910F91FF90E3
:10118000EF90DF90CF90BF90AF900895F70182A1CC
:10119000815082A3268991A12917B1F28111D4CF60
:1011A0005701F2E0AF0EB11CC50144DCF70181A18B
:1011B000868B24E030E0281B310935872487909105
:1011C000BD02981710F48093BD02F9E08F9FC00113
:1011D0001124B50187569D4FCEDB81E0B6CF50E09C
:1011E000B7018281938133D6F801848D22813381C6
:1011F000820F932F911D93838283248135818217DF
:10120000930708F49ACF808191819383828395CF4D
:101210002C813D81232B21F40F900FBE80E0A6CFBF
:10122000811109C08091980289838091BE029091BA
:10123000BF029B838A830F900FBE8CDB0FB6F8949E
:101240000F92F801858D8F3F09F4158EF801868D78
:101250008F3F09F4168E0F900FBEBE016C5F7F4F5B
:10126000CE0101963ADB811123C00FB6F8940F929C
:10127000F801928D838D0F900FBE981315C0AC802E
:10128000BD806091340270913502645F7F4FC6016A
:1012900072DB61E0C50112DCC801A4DC08DE81114B
:1012A00001C06EDD81E038CFC8019CDC00DEFACFE2
:1012B000C80198DCFCDDB2CFCF93DF9300D01F9242
:1012C0001F92CDB7DEB79C01809196029091970254
:1012D0000097B1F019827B836A833D832C83209130
:1012E0009502BE016F5F7F4F211120919402FCDEB9
:1012F0000F900F900F900F900F90DF91CF91089566
:1013000080E0F6CFEF92FF920F931F93CF93DF937E
:10131000E0918902F0918A028081811113C080914D
:1013200087029091880290938A0280938902F093B9
:101330008802E0938702DF91CF911F910F91FF9078
:10134000EF9008950580F681E02D00811181C6811E
:10135000D7817E0182E0E80EF11CC7016BDBE889D2
:10136000F989CE0119958A8982FFD2CF8C859D8516
:10137000800F911F0817190758F49B838A83D98718
:10138000C887B7018091890290918A02F4DAC0CFB0
:10139000B801CE0191DFBCCFCF93DF93EC010FB644
:1013A000F8940F9280916B028F5F80936B02809113
:1013B000340290913502892B09F057C0D093350241
:1013C000C093340280916B02813039F589E992E053
:1013D00049DC82EA92E046DC8BEA92E043DC84EB73
:1013E00092E040DC89E492E03DDC80E492E03ADC8B
:1013F0008DE692E037DC87E392E034DC86E792E02A
:1014000031DC89E492E0909382028093810280E44F
:1014100092E09093840280938302809152028F5FC6
:10142000809352028E899091BD02981710F4809398
:10143000BD0229E0829FC0011124BE016E5F7F4F73
:1014400087569D4F98DA0F900FBE809195028823A2
:1014500049F0E0913402F091350296898E8998170F
:1014600008F48EDCDF91CF9108958091950281116F
:10147000D4CFE0913402F091350296898E89891794
:1014800060F2D0933502C0933402C7CF0F920FB6EB
:10149000F8940F920BB60F920CB60F921F92112474
:1014A0002F923F924F925F926F927F928F929F9274
:1014B000AF92BF92CF92DF92EF92FF920F931F9362
:1014C0002F933F934F935F936F937F938F939F934C
:1014D000AF93BF93CF93DF93EF93FF93A091340229
:1014E000B09135020DB60D920EB60D9213BE8091DD
:1014F0009402811111C18091BE029091BF020196A8
:101500009093BF028093BE02009799F520918102CB
:101510003091820240918302509184025093820262
:101520004093810230938402209383022091980299
:101530002F5F20939802E0918102F0918202208136
:10154000211107C02FEF3FEF3093800220937F02DD
:1015500010C0E0918102F09182020580F681E02DB9
:101560000680F781E02D2281338130938002209321
:101570007F0220917F02309180028217930720F42E
:1015800020E0B6C021E003C020E039E0932EE091D6
:101590008102F09182024081411107C08FEF9FEFDD
:1015A0009093800280937F02A3C0E0918102F0912A
:1015B00082020580F681E02D0680F781E02D4281D0
:1015C00053818417950728F45093800240937F023B
:1015D0008FC0BF016E5F7F4FA285B38504811581E7
:1015E000E680F780E801FD82EC82C681D7811B830B
:1015F0000A8311960D911C9112976017710721F4BF
:101600001296DC93CE93119713861286CC91C1501B
:10161000CC93AC91A489B5891097F9F0E684F7844E
:1016200000891189E7011D830C8300891189E80174
:10163000FB82EA821196ED90FC901297EF012C96B6
:10164000EC16FD0621F412961C930E931197158A41
:10165000148ACC91C150CC93AC91A689B091BD02B3
:10166000BA1710F4A093BD02AA2EB12CA99DD001E7
:1016700011248D0107561D4FA456BD4F4F3F5407EF
:1016800039F4D80117960D90BC91A02D0BC0D7014D
:101690001296ED90FC901397E701C880D9804C1505
:1016A0005D05A8F712964D915C911397558344837D
:1016B000EA017D836C83B783A68313967C936E9334
:1016C0001297138702879A9CD0019B9CB00D11241E
:1016D000A756BD4F4C914F5F4C93A0913402B091EF
:1016E0003502568956964C91541708F04BCF4FCF80
:1016F000E0913402F0913502E689D9E0ED9FF001E6
:101700001124E756FD4F8081823008F021E080915E
:101710006C0281110DC00AC08091690290916A0229
:10172000019690936A02809369023AC02223C1F124
:1017300080919402882321F081E080936C0230C074
:1017400010926C02A0913402B0913502E091340203
:10175000F09135022D913C918789908D82179307E6
:10176000A8F08091340290913502809134029091DA
:101770003502279A2F9A2FEF37EA81E62150304021
:101780008040E1F700C000001F9AF5CFE091A7026A
:10179000F091A8028681978190933502809334025C
:1017A000A0913402B0913502CD91CDBFDD91DEBF65
:1017B000FF91EF91DF91CF91BF91AF919F918F9169
:1017C0007F916F915F914F913F912F911F910F9159
:1017D000FF90EF90DF90CF90BF90AF909F908F9051
:1017E0007F906F905F904F903F902F901F900F9041
:1017F0000CBE0F900BBE0F900FBE0F900895CF93AD
:10180000DF93009739F0EC01A5D8CE018FD2DF919C
:10181000CF914DCBDF91CF910895CF93DF93EC0122
:1018200099D8CE01E7D1EC0142DB209769F4279AE1
:101830002F9A2FEF80E792E0215080409040E1F70F
:1018400000C000001F9AF5CFCE01DF91CF9108951F
:101850005F926F927F928F929F92AF92BF92CF9240
:10186000DF92EF92FF920F931F93CF93DF934C0180
:101870003B015A01522ECA01D0DF7C01892B31F184
:1018800088E290E0CADFEC010097F1F0F88EEF8A71
:101890006C017801052D30E020E0A501B301C40101
:1018A000EFD9CE0179DD81E0DF91CF911F910F91CA
:1018B000FF90EF90DF90CF90BF90AF909F908F9070
:1018C0007F906F905F900895C70199DF8FEFECCF05
:1018D0008F929F92AF92BF92CF92DF92EF92FF9240
:1018E0000F931F93CF93DF935C014B0180E890E04F
:1018F00094DF8C01892B59F188E290E08EDFEC01B6
:10190000892B19F1188F0F8B8091BE029091BF0225
:101910009B838A836E01F12CE12C01E0940140E865
:1019200050E0B5018CEC93E0ABD9CE0135DD81E020
:10193000DF91CF911F910F91FF90EF90DF90CF90AB
:10194000BF90AF909F908F900895C80158DF8FEFA0
:10195000EFCF0F931F93CF93DF9307E612E020E0C2
:1019600040EC50E06EE072E08EE892E071DF813092
:1019700009F0B1C00FB6F8940F9280919602909141
:101980009702892B09F04AC08CE592E06BD983E578
:1019900092E068D98CE592E090938A028093890264
:1019A00083E592E0909388028093870281E590E03E
:1019B00034DFEC01009771F14F96998388838AE0B8
:1019C0008B8F85E08C8F0FB6F8940F928881998168
:1019D0002B8D4C8DBC01249F600D711D11247D83C6
:1019E0006C831A8E9B838A832150330B429FB001F4
:1019F000439F700D1124860F971F9F838E838FEF57
:101A00008D8F8E8FCE0108962DD9CE0141962AD981
:101A10000F900FBED0939702C09396020F900FBE07
:101A20008091960290919702892B09F454C005E6A3
:101A300012E023E045E550E063E172E085EF90E0DD
:101A400007DF813009F047C0F8942FEF3FEF309364
:101A5000800220937F02809395021092BF02109221
:101A6000BE02A89588E190EC0FB6F894A8958093F3
:101A700060000FBE90936000A0913402B0913502D7
:101A8000CD91CDBFDD91DEBFFF91EF91DF91CF9181
:101A9000BF91AF919F918F917F916F915F914F9186
:101AA0003F912F911F910F91FF90EF90DF90CF907A
:101AB000BF90AF909F908F907F906F905F904F906E
:101AC0003F902F901F900F900CBE0F900BBE0F9069
:101AD0000FBE0F900895DF91CF911F910F91089540
:101AE000D5DC1895789484B5826084BD84B5816016
:101AF00084BD85B5826085BD85B5816085BD8091D9
:101B00006E00816080936E00109281008091810050
:101B10008260809381008091810081608093810048
:101B2000809180008160809380008091B10084600A
:101B30008093B1008091B00081608093B00080916B
:101B400091008260809391008091910081608093E8
:101B50009100809190008160809390008091A1001D
:101B600082608093A1008091A10081608093A10098
:101B70008091A00081608093A0008091210182600B
:101B800080932101809121018160809321018091C6
:101B9000200181608093200180917A00846080938D
:101BA0007A0080917A00826080937A0080917A0036
:101BB000816080937A0080917A00806880937A00B7
:101BC0001092C10020910402309105028FEF91E242
:101BD000821B930B90930102809300020E940104E8
:101BE000B8DE0E940104C0E0D0E02097F1F30E942B
:101BF0000000FBCF0F931F93CF93DF9382309105AB
:101C000010F482E090E0E091C202F091C30230E073
:101C100020E0B0E0A0E0309799F42115310509F4F7
:101C20004AC0281B390B24303105D8F58A819B81A5
:101C30006115710589F1FB0193838283FE0111C057
:101C4000408151810281138148175907E0F04817FC
:101C5000590799F4109761F012960C931297139606
:101C60001C933296CF01DF91CF911F910F91089570
:101C70000093C2021093C302F4CF2115310551F035
:101C80004217530738F0A901DB019A01BD01DF01BA
:101C9000F801C1CFEF01F9CF9093C3028093C20244
:101CA000CDCFFE01E20FF31F8193919322503109B2
:101CB00039832883D7CF2091C0023091C102232BD2
:101CC00041F420910202309103023093C10220932B
:101CD000C00220910002309101022115310541F42A
:101CE0002DB73EB74091040250910502241B350BDD
:101CF000E091C002F091C102E217F307A0F42E1B9D
:101D00003F0B2817390778F0AC014E5F5F4F24175F
:101D1000350748F04E0F5F1F5093C1024093C00239
:101D2000819391939FCFF0E0E0E09CCFCF93DF933E
:101D30000097E9F0FC01329713821282A091C2024F
:101D4000B091C302ED0130E020E01097A1F42081B2
:101D50003181820F931F2091C0023091C102281758
:101D6000390709F061C0F093C102E093C002DF912E
:101D7000CF910895EA01CE17DF07E8F54A815B812C
:101D80009E0141155105B1F7E901FB83EA834991B1
:101D90005991C40FD51FEC17FD0761F48081918123
:101DA0000296840F951FE90199838883828193812C
:101DB0009B838A83F0E0E0E012968D919C911397CB
:101DC0000097B9F52D913C911197CD010296820FA4
:101DD000931F2091C0023091C1022817390739F6AC
:101DE000309751F51092C3021092C202B093C10213
:101DF000A093C002BCCFD383C28340815181840FA2
:101E0000951FC817D90761F44E5F5F4F888199818C
:101E1000480F591F518340838A819B81938382831A
:101E20002115310509F0B0CFF093C302E093C2024F
:101E30009ECFFD01DC01C0CF13821282D7CFEE0FFF
:101E4000FF1F881F8BBF0790F691E02D1994FB01AF
:101E5000DC0102C001900D9241505040D8F7089526
:101E6000DC0101C06D9341505040E0F70895F894B3
:021E7000FFCFA2
:101E72000000C4028000190018001700160049442F
:101E82004C4500546D7220537663007461736B315C
:101E9200007461736B32007461736B33007461732D
:041EA2006B3400009D
:00000001FF
