:10000000BDC20000DCC20000DAC20000D8C200009D
:10001000D6C20000D4C20000D2C20000D0C200008C
:10002000CEC20000CCC20000CAC20000C8C200009C
:100030000C94950DC4C20000C2C20000C0C20000F2
:10004000BEC20000BCC20000BAC20000B8C20000BC
:10005000B6C20000B4C20000B2C2000015C4000065
:10006000AEC20000ACC20000AAC20000A8C20000DC
:10007000A6C20000A4C20000A2C20000A0C20000EC
:100080009EC200009CC200009AC2000098C20000FC
:1000900096C2000094C2000092C2000090C200000C
:1000A0008EC200008CC200008AC2000088C200001C
:1000B00086C2000084C2000082C2000080C200002C
:1000C0007EC200007CC200007AC2000078C200003C
:1000D00076C2000074C2000072C2000070C200004C
:1000E0006EC2000000000A0B02090C0D0E08070387
:1000F00004010000000000000000000000000000FB
:1001000000000000000000000000000000000000EF
:1001100012111000000000000000000000000000AC
:100120000000000000000000000000002200250088
:1001300028002B002E0031003400020100000501D0
:1001400008010B0100002100240027002A002D00D7
:100150003000330001010000040107010A01050518
:100160000505070508080808020202020A0A08082D
:10017000040404040101010101010101030303035B
:1001800003030303040707070C0C0C0C0C0C0C0CEA
:100190000202020206060606060606060B0B0B0BFB
:1001A0000B0B0B0B01021020200808102040102020
:1001B000408002010201080402010102040810202B
:1001C0004080804020100804020180040201804029
:1001D0002010080402010804020101020408102092
:1001E00040800102040810204080CF93DF9300D0AC
:1001F00000D000D01F92CDB7DEB7E0919202F0910F
:100200009302F08010E000E0FF2029F00580F681E5
:10021000E02D00811181BFD3B4D36C0180918E0297
:1002200090918F02C816D90608F078C00E94230961
:10023000D0928F02C0928E02DBD500919F02109166
:10024000A0021A86198680E06801B1E1CB0ED11CAC
:100250000FB6F8940F92F801F28CFF2009F409C14F
:10026000448D4423C1F050E086819781840F951F0F
:1002700097838683248135818217930720F08081BC
:10028000918197838683D80116966D917C91CE01DA
:1002900001960E944C0FFA94F801F28E8085882313
:1002A00029F0C801089682D481110BD50F900FBE9A
:1002B000D980D7FCC2CF0C811D81D8011A968D91AF
:1002C0009C91892B19F0C8010296D5D35AD37C0191
:1002D00080918E0290918F02E816F90608F4B3D748
:1002E000F0928F02E0928E02B9E0BD1508F4A5CF1E
:1002F000ED2DDD0CFF0BD80152969C918827EC5711
:10030000FE4F8F4F0C94440FFF01FF01FF01340299
:1003100020022E02FF01FF0134022002D0928F0240
:10032000C0928E02FF2079F1C016D106A0F160D5EF
:10033000E0919202F09193020580F681E02DE68033
:10034000F780C701029697D3D70152968C915297A6
:1003500082FF15C01C966D917C91600F711F9801F2
:10036000A601C7015FD3882319F0B801C70145D79B
:10037000D7015096ED91FC91C70119955ECF8E7F04
:10038000F701828BF5CFE0919002F091910280818C
:10039000BB24B3948111B12CE0909F02F090A00295
:1003A0000FB6F8940F92F701858D8F3F09F4158EE3
:1003B000D7015E968C915E978F3F11F45E961C92EA
:1003C0000F900FBEF701828D811112C0609134022F
:1003D00070913502645F7F4FC701419670D3C801A9
:1003E0008C199D09BB2011F08FEF9FEF6B2D87D3E8
:1003F000C70119D4FDD4811120CF63D41ECF9160E1
:10040000F801928BCA80DB80648575856C0D7D1D3B
:100410009601A701C80106D3882309F40ECFD8019D
:100420005096ED91FC91C8011995F801828982FFDF
:1004300004CF648575856C0D7D1DC801DED6FDCEAB
:100440009160F801928B6A817B81758764876E0D5C
:100450007F1D9701A701C801E5D2EFCE91FD04C031
:10046000C8010E94A30BE9CE9E7FD80152969C93AF
:10047000E4CE29853A85232B19F40F900FBEBDCE0B
:10048000811109C08091A3028E838091A102909175
:10049000A20298878F830F900FBE7DD20FB6F8947B
:1004A0000F92D8015D968C915D978F3F11F45D9608
:1004B0001C92F801868D8F3F09F4168E0F900FBEA7
:1004C000BE01675F7F4FCE01069628D281111DC005
:1004D000C80167D28823A9F0E984FA8460913402C4
:1004E00070913502645F7F4FC60166D261E0C7013B
:1004F00006D3C80198D37CD4811101C0E2D381E036
:10050000A7CEC80190D374D4FACFC8018CD370D4CD
:10051000C80147D2882399F370CE00E010E08091A3
:10052000360281110BC08091A402823008F0C9D339
:1005300001151105A1F30E940000F1CF0FB6F89448
:100540000F92E0914502F0914602C681D781CE011B
:10055000029691D2809174028150809374028091AE
:1005600036028150809336020F900FBE8F89988D8E
:100570000E94A30BCE010E94A30BD1CF11241FBE5A
:10058000CFEFD1E2DEBFCDBF00E00CBF12E0A0E0B4
:10059000B2E0ECEBFEE100E00BBF02C007900D9271
:1005A000A433B107D9F722E0A4E3B2E001C01D9261
:1005B000AD3CB207E1F70E94970D0C945C0F20CD83
:1005C00090E0FC01EC55FE4F2491825A9E4FFC01B5
:1005D0008491882399F090E0880F991FFC01EC5BCF
:1005E000FE4FA591B491FC01E65DFE4F859194917B
:1005F0008FB7F894EC91E22BEC938FBF0895282FDE
:1006000030E0F901EC51FF4F9491F901EC55FE4FA8
:100610004491225A3E4FF9012491222309F435C016
:10062000992311F191509231F8F4E92FF0E08827E5
:10063000E35EFC4F8F4F0C94440F4E0352032F0385
:1006400046034A03340355035B035F0365036903F1
:100650006D037303770334037B0381038503809168
:1006600080008F7780938000E22FF0E0EE0FFF1F75
:10067000E65DFE4FA591B4918FB7F894EC916111AE
:1006800048C040954E234C938FBF089580918000C1
:100690008F7DE8CF80918000877FE4CF84B58F770E
:1006A00084BDE2CF84B58F7DFBCF8091B0008F7782
:1006B0008093B000D9CF8091B0008F7DF9CF809129
:1006C00090008F7780939000CFCF809190008F7DA6
:1006D000F9CF80919000877FF5CF8091A0008F7730
:1006E0008093A000C1CF8091A0008F7DF9CF809131
:1006F000A000877FF5CF809120018F778093200124
:10070000B3CF809120018F7DF9CF80912001877F29
:10071000F5CF4E2BB8CF3FB7F894809199029091C6
:100720009A02A0919B02B0919C0226B5A89B05C09D
:100730002F3F19F00196A11DB11D3FBFBA2FA92F60
:10074000982F8827BC01CD01620F711D811D911D5D
:1007500042E0660F771F881F991F4A95D1F70895C9
:10076000E0918A02F0918B028081811107C08FEFA6
:100770009FEF90938902809388020895E0918A0206
:10078000F0918B020580F681E02D0680F781E02D47
:1007900082819381EECFFC01C08161E08C2F2FDF3D
:1007A000BADF4B015C0188EBC82E8BE0D82EE12C20
:1007B000F12CB1DF681979098A099B09683E7340F9
:1007C00081059105B0F3F1E0CF1AD108E108F108F5
:1007D00028EE820E23E0921EA11CB11CC114D1048C
:1007E000E104F10431F760E08C2F09DFD4D060E040
:1007F00083E090E084D1FCD28111CFCF62D2CDCF03
:10080000EF92FF920F931F9386E1DADE87E1D8DE45
:1008100088E1D6DE89E1D4DE8AE5E82EF12C10E00D
:1008200000E02CE032E040E850E06BE172E08BEC5D
:1008300093E0B2D79CE3E92EF12C2AE032E040E8C5
:1008400050E061E272E08BEC93E0A6D720E5E22E67
:10085000F12C28E032E040E850E067E272E08BECF7
:1008600093E09AD736E4E32EF12C26E032E040E81C
:1008700050E06DE272E08BEC93E08ED71F910F9108
:10088000FF90EF900C94680C1F920F920FB60F928E
:1008900011242F933F938F939F93AF93BF93809196
:1008A000950290919602A0919702B0919802309192
:1008B000940223E0230F2D3758F50196A11DB11D99
:1008C000209394028093950290939602A0939702AE
:1008D000B09398028091990290919A02A0919B0204
:1008E000B0919C020196A11DB11D80939902909335
:1008F0009A02A0939B02B0939C02BF91AF919F91EB
:100900008F913F912F910F900FBE0F901F901895D0
:1009100026E8230F0296A11DB11DD2CFFC01DB01F9
:100920000FB6F8940F924091A1025091A2022D911E
:100930003C9111972F3F3207E1F0818192816091C4
:10094000A3027081761719F048175907C0F4481BA5
:10095000590B4217530788F4241B350B2D933C93F6
:100960008091A30280838091A1029091A202928340
:10097000818380E00F900FBE08951D921C9281E04C
:10098000F9CF0FB6F8940F928091A1029091A20234
:100990000F900FBE089580919D028F5F80939D02FE
:1009A00008950FB6F8940F92FC01928D0F900FBE30
:1009B00081E0911180E008950F931F93CF93DF930F
:1009C0008C01FB0180819181D80113968F3F98079C
:1009D000F1F4E801AF81B88512968D919C9113973F
:1009E00093838283EC01FD83EC83B583A483139608
:1009F000FC93EE93129711870087F80180818F5F37
:100A00008083DF91CF911F910F910895D9011296A4
:100A10002D913C911397E9014881598184179507DD
:100A2000A8F7DACFFC01738362839187808746172A
:100A3000570788F0421B530B848595854817590743
:100A4000C0F4BF016E5F7F4F809190029091910240
:100A5000B3DF80E008954217530718F46217730755
:100A600040F4BF016E5F7F4F80919202909193029C
:100A7000EFCF81E00895CF93DF93FC01A085B1858E
:100A80008281938124813581EC013D832C83C48153
:100A9000D5819B838A8311968D919C9112978E1795
:100AA0009F0721F41296DC93CE931197118610863E
:100AB0008C9181508C938C91DF91CF910895CF933D
:100AC000DF939C01FB01DC011196CD91DC91D38376
:100AD000C2838C819D81958384838C819D81DC017F
:100AE00013967C936E9312977D836C833187208756
:100AF000F90180818F5F8083DF91CF910895FF920C
:100B00000F931F93CF93DF93EC01F62E0091A10278
:100B10001091A20280913402909135020296ABDFCF
:100B2000CF3FDC0781F4FF2071F0609134027091B7
:100B300035026E5F7F4F8FE792E0DF91CF911F917B
:100B40000F91FF90BCCFC00FD11FE0913402F09104
:100B50003502D383C2836091340270913502C0178D
:100B6000D10760F480918C0290918D026E5F7F4F6F
:100B7000DF91CF911F910F91FF901ECF80918A023C
:100B800090918B026E5F7F4F17DF8091880290916A
:100B90008902C817D90720F4D0938902C09388022C
:100BA000DF91CF911F910F91FF9008950F931F93A5
:100BB000CF93DF93DC011596ED91FC91C681D7812F
:100BC0008E01045F1F4FC80156DF80919D02811185
:100BD00023C00A501109C8014EDF8E899091C802C6
:100BE000981710F48093C802B9E08B9FC0011124BC
:100BF000B8018C559D4FE0DEE0913402F091350252
:100C00009E898689891768F481E080937502DF9157
:100C1000CF911F910F910895B80186E792E04FDFC1
:100C2000EBCF80E0F4CFEF92FF920F931F93CF931F
:100C3000DF93EC010FB6F8940F921E8D7C0181E1D9
:100C4000E80EF11C01E01116D4F08FEF8E8F0F909B
:100C50000FBE0FB6F8940F921D8D7E0188E0E80E4E
:100C6000F11C01E01116ACF08FEF8D8F0F900FBECD
:100C7000DF91CF911F910F91FF90EF900895898997
:100C8000882319F3C70192DF811100937502115077
:100C9000DACF8885882341F3C70188DF811100936B
:100CA00075021150DFCFFC010396928381832FEFF1
:100CB0003FEF3483238396838583908787831082D5
:100CC00008950F920FB6F8940F920BB60F920CB6D0
:100CD0000F921F9211242F923F924F925F926F9228
:100CE0007F928F929F92AF92BF92CF92DF92EF92BC
:100CF000FF920F931F932F933F934F935F936F93A5
:100D00007F938F939F93AF93BF93CF93DF93EF9393
:100D1000FF93A0913402B09135020DB60D920EB63C
:100D20000D9280919D02882321F081E080937502CD
:100D300030C010927502A0913402B0913502E0915A
:100D40003402F09135022D913C918789908D821764
:100D50009307A8F08091340290913502809134027B
:100D600090913502279A2F9A2FEF87EA91E621502A
:100D700080409040E1F700C000001F9AF5CFE0915D
:100D8000B202F091B30286819781909335028093ED
:100D90003402A0913402B0913502CD91CDBFDD91E6
:100DA000DEBFFF91EF91DF91CF91BF91AF919F9106
:100DB0008F917F916F915F914F913F912F911F91F3
:100DC0000F91FF90EF90DF90CF90BF90AF909F90EA
:100DD0008F907F906F905F904F903F902F901F90DB
:100DE0000F900CBE0F900BBE0F900FBE0F9008958A
:100DF0007F928F929F92AF92BF92CF92DF92EF92AB
:100E0000FF920F931F93CF93DF930FB6F8940F9237
:100E100080919D02815080939D0280919D02882344
:100E200089F080E00F900FBEDF91CF911F910F915D
:100E3000FF90EF90DF90CF90BF90AF909F908F90FA
:100E40007F90089580917402882359F3D0E0C0E028
:100E500029E0F22EEE24E39426C0E0917B02F0918B
:100E60007C02C681D781CE010C9605DE8E010E5F15
:100E70001F4FC80100DE8E899091C802981710F4A8
:100E80008093C8028F9DC0011124B8018C559D4FDD
:100E900093DDE0913402F09135029E89868998179E
:100EA00010F0E0927502809176028111D6CFCD2BA1
:100EB00009F056DCE0907202F0907302E114F10444
:100EC00009F4ABC089E0A82E77247394CC24CA948B
:100ED000DC2C80919D0281118EC0C091A102D09125
:100EE000A2022196D093A202C093A1022097B1F44E
:100EF00080918A0290918B0220918C0230918D0218
:100F000030938B0220938A0290938D0280938C02FF
:100F10008091A3028F5F8093A30222DC80918802DC
:100F200090918902B12CC817D90708F058C0E091F8
:100F30003402F0913502E689AE9EF0011124EC55A1
:100F4000FD4F8081823010F0BB24B39480917502F4
:100F5000811103C0BB2009F457C07092750254C0C0
:100F6000E0918A02F0918B020580F681E02D0681E6
:100F70001781D80112968D919C91C817D90728F432
:100F80009093890280938802D2CF4801B2E08B0E01
:100F9000911CC40170DDF80184899589892B19F0B1
:100FA000C8010C9668DDD80156968C919091C802C4
:100FB000981710F48093C8028A9DC0011124B401CF
:100FC0008C559D4FF9DCE0913402F0913502D80147
:100FD00056969C918689981710F0BB24B394E091A3
:100FE0008A02F0918B0280818111BACFD09289025E
:100FF000C09288029CCF80917202909173020196F8
:101000009093730280937202B1E0EB1AF10809F039
:1010100060CF109273021092720280917502882341
:1010200009F4FFCE4EDE81E0FDCEAF92BF92CF92AB
:10103000DF92EF92FF920F931F93CF93DF9300D035
:101040001F921F92CDB7DEB78C017B011D821C82DF
:1010500080E0680128E0C20ED11C0FB6F8940F9210
:10106000F801228D938D291708F073C0D28C448D1E
:10107000411156C080819181892B11F080E009C017
:10108000E480F580E114F10411F580E0F8011582A7
:101090001482D394F801D28E9189992319F0C80152
:1010A000419684DD81110DDE0F900FBE81E00F901F
:1010B0000F900F900F900F90DF91CF911F910F9194
:1010C000FF90EF90DF90CF90BF90AF900895F70121
:1010D00082A1815082A3268991A12917B1F28111A1
:1010E000D4CF5701F2E0AF0EB11CC501C4DCF7014B
:1010F00081A1868B24E030E0281B310935872487C5
:101100009091C802981710F48093C802F9E08F9F5D
:10111000C0011124B5018C559D4F4EDC81E0B6CF46
:1011200050E0B70182819381B7D6F801848D228186
:101130003381820F932F911D938382832481358184
:101140008217930708F49ACF8081918193838283D9
:1011500095CF2C813D81232B21F40F900FBE80E091
:10116000A6CF811109C08091A30289838091A10239
:101170009091A2029B838A830F900FBE0CDC0FB666
:10118000F8940F92F801858D8F3F09F4158EF801C0
:10119000868D8F3F09F4168E0F900FBEBE016C5FD7
:1011A0007F4FCE010196BADB811123C00FB6F894B0
:1011B0000F92F801928D838D0F900FBE981315C07A
:1011C000AC80BD806091340270913502645F7F4FC6
:1011D000C601F2DB61E0C50192DCC80124DD08DE56
:1011E000811101C06EDD81E038CFC8011CDD00DE59
:1011F000FACFC80118DDFCDDB2CFCF93DF9300D06A
:101200001F921F92CDB7DEB79C0180919F029091F3
:10121000A0020097B1F019827B836A833D832C83FF
:1012200020919E02BE016F5F7F4F211120919D0290
:10123000FCDE0F900F900F900F900F90DF91CF91E9
:10124000089580E0F6CFEF92FF920F931F93CF9314
:10125000DF93E0919202F09193028081811113C09B
:1012600080919002909191029093930280939202C8
:10127000F0939102E0939002DF91CF911F910F9133
:10128000FF90EF9008950580F681E02D0081118197
:10129000C681D7817E0182E0E80EF11CC701EBDB3D
:1012A000E889F989CE0119958A8982FFD2CF8C8588
:1012B0009D85800F911F0817190758F49B838A8317
:1012C000D987C887B701809192029091930274DB0D
:1012D000C0CFB801CE0191DFBCCFCF93DF93EC013B
:1012E0000FB6F8940F92809174028F5F809374020E
:1012F0008091340290913502892B09F05AC0D09325
:101300003502C093340280917402813051F584EA31
:1013100092E0C9DC8DEA92E0C6DC86EB92E0C3DCA9
:101320008FEB92E0C0DC82E592E0BDDC89E492E0E4
:10133000BADC86E792E0B7DC80E492E0B4DC8FE7C9
:1013400092E0B1DC87E392E0AEDC82E592E090933C
:101350008B0280938A0289E492E090938D028093BD
:101360008C0280915B028F5F80935B028E899091EB
:10137000C802981710F48093C80229E0829FC00128
:101380001124BE016E5F7F4F8C559D4F15DB0F9072
:101390000FBE80919E02882349F0E0913402F091C3
:1013A000350296898E89981708F48BDCDF91CF91EE
:1013B000089580919E028111D4CFE0913402F09182
:1013C000350296898E89891760F2D0933502C093D1
:1013D0003402C7CF0F920FB6F8940F920BB60F924C
:1013E0000CB60F921F9211242F923F924F925F9250
:1013F0006F927F928F929F92AF92BF92CF92DF9225
:10140000EF92FF920F931F932F933F934F935F930E
:101410006F937F938F939F93AF93BF93CF93DF93FC
:10142000EF93FF93A0913402B09135020DB60D9267
:101430000EB60D9213BE80919D02811111C1809153
:10144000A1029091A20201969093A2028093A10220
:10145000009799F520918A0230918B0240918C027D
:1014600050918D0250938B0240938A0230938D02EB
:1014700020938C022091A3022F5F2093A302E0917E
:101480008A02F0918B022081211107C02FEF3FEFDC
:10149000309389022093880210C0E0918A02F09173
:1014A0008B020580F681E02D0680F781E02D2281F8
:1014B00033813093890220938802209188023091F1
:1014C00089028217930720F420E0B6C021E003C010
:1014D00020E039E0932EE0918A02F0918B02408166
:1014E000411107C08FEF9FEF90938902809388028C
:1014F000A3C0E0918A02F0918B020580F681E02D75
:101500000680F781E02D428153818417950728F4E6
:1015100050938902409388028FC0BF016E5F7F4F56
:10152000A285B38504811581E680F780E801FD82FC
:10153000EC82C681D7811B830A8311960D911C9181
:1015400012976017710721F41296DC93CE931197CE
:1015500013861286CC91C150CC93AC91A489B589E5
:101560001097F9F0E684F78400891189E7011D835B
:101570000C8300891189E801FB82EA821196ED90C3
:10158000FC901297EF012C96EC16FD0621F41296B2
:101590001C930E931197158A148ACC91C150CC9349
:1015A000AC91A689B091C802BA1710F4A093C802F2
:1015B000AA2EB12CA99DD00111248D010C551D4FCF
:1015C000A955BD4F4F3F540739F4D80117960D90D8
:1015D000BC91A02D0BC0D7011296ED90FC901397F3
:1015E000E701C880D9804C155D05A8F712964D918A
:1015F0005C91139755834483EA017D836C83B783A1
:10160000A68313967C936E931297138702879A9CF6
:10161000D0019B9CB00D1124AC55BD4F4C914F5F38
:101620004C93A0913402B0913502568956964C9154
:10163000541708F04BCF4FCFE0913402F0913502B0
:10164000E689D9E0ED9FF0011124EC55FD4F808132
:10165000823008F021E08091750281110DC00AC02E
:10166000809172029091730201969093730280931D
:1016700072023AC02223C1F180919D02882321F099
:1016800081E08093750230C010927502A0913402FF
:10169000B0913502E0913402F09135022D913C91E8
:1016A0008789908D82179307A8F0809134029091DA
:1016B00035028091340290913502279A2F9A2FEFAC
:1016C00037EA81E6215030408040E1F700C0000059
:1016D0001F9AF5CFE091B202F091B3028681978113
:1016E0009093350280933402A0913402B091350278
:1016F000CD91CDBFDD91DEBFFF91EF91DF91CF9115
:10170000BF91AF919F918F917F916F915F914F9119
:101710003F912F911F910F91FF90EF90DF90CF900D
:10172000BF90AF909F908F907F906F905F904F9001
:101730003F902F901F900F900CBE0F900BBE0F90FC
:101740000FBE0F900895CF93DF93009739F0EC010F
:1017500022D9CE0110D3DF91CF914ACBDF91CF9127
:101760000895CF93DF93EC0116D9CE0168D2EC0136
:101770003FDB209769F4279A2F9A2FEF80E792E0BA
:10178000215080409040E1F700C000001F9AF5CF43
:10179000CE01DF91CF9108954F925F926F927F9229
:1017A0008F929F92AF92BF92CF92DF92EF92FF9271
:1017B0000F931F93CF93DF934C013B016A01522E8D
:1017C000432ECA01CEDF5C01892B09F47FC08AE277
:1017D00090E0C7DFEC01892B09F476C0B88EAF8AA0
:1017E000F9A6E8A68091A1029091A202E80EF91E46
:1017F000FB82EA82A60165EA70E0C50156D381E06A
:10180000C81AD108EF89F88DEC0DFD1DB301CE018A
:1018100049969301285F3F4FDB014D91BD01DC01EB
:101820004D93CD01AB0141505109DA014C91442354
:1018300019F02617370781F718A281E08E8B89A34C
:101840001AA21B861A861D8A1C8AD987C88783E03C
:1018500090E09D878C87DB8BCA8B1BA21CA21DA2EC
:101860001EA21FA28082DF0111979C9211971C92E9
:1018700011971C92119780E88C9311971C921197E5
:101880001C9211971C9257975C9211974C92B697A5
:10189000F983E8830115110519F0F801D183C0839C
:1018A000CE011BDD81E0DF91CF911F910F91FF9061
:1018B000EF90DF90CF90BF90AF909F908F907F90F0
:1018C0006F905F904F900895C5013DDF8FEFEBCF94
:1018D000EF92FF920F931F93CF93DF9388EEE82E42
:1018E00083E0F82E00E712E030E020E040EC50E02A
:1018F00066E172E08DE892E04FDF813009F006C1C9
:101900000FB6F8940F9280919F029091A002892BBC
:1019100009F04AC085E692E0C6D98CE592E0C3D9C9
:1019200085E692E090939302809392028CE592E098
:10193000909391028093900281E590E012DFEC0198
:10194000009771F14F96998388838AE08B8F85E0A9
:101950008C8F0FB6F8940F92888199812B8D4C8DC6
:10196000BC01249F600D711D11247D836C831A8E30
:101970009B838A832150330B429FB001439F700D9C
:101980001124860F971F9F838E838FEF8D8F8E8FED
:10199000CE01089688D9CE01419685D90F900FBE09
:1019A000D093A002C0939F020F900FBE80919F0220
:1019B0009091A002892B09F4A9C085E590E0D1DEC1
:1019C0008C01892B09F4A2C08AE290E0CADEEC0106
:1019D000892B09F4A2C0188F0F8B45E550E065EA0A
:1019E00070E0C80162D2EF89F88D8EE092E0BE010E
:1019F000675E7F4FAE014F5D5F4FDC012D91CD01E2
:101A0000DB012D93BD01222319F0A417B507A9F717
:101A100018A283E08E8B89A31AA21B861A861D8AC0
:101A20001C8AD987C88781E090E09D878C87DB8BF3
:101A3000CA8B1BA21CA21DA21EA21FA285EF90E0B2
:101A4000DF01AC5ABF4F8C9311979C9311971C9256
:101A500011971C92119780E88C9311971C92119703
:101A60001C9211971C9216AA15AABE96F983E883B8
:101A7000D0936F02C0936E02CE012FDCF8948FEFEB
:101A80009FEF909389028093880281E080939E0269
:101A90001092A2021092A102A89588E190EC0FB6D4
:101AA000F894A895809360000FBE90936000A09179
:101AB0003402B0913502CD91CDBFDD91DEBFFF91F3
:101AC000EF91DF91CF91BF91AF919F918F917F91D6
:101AD0006F915F914F913F912F911F910F91FF90C7
:101AE000EF90DF90CF90BF90AF909F908F907F90BE
:101AF0006F905F904F903F902F901F900F900CBE73
:101B00000F900BBE0F900FBE0F900895DF91CF91F5
:101B10001F910F91FF90EF900895C801DF91CF9131
:101B20001F910F91FF90EF900ECE54DC1895789492
:101B300084B5826084BD84B5816084BD85B58260D2
:101B400085BD85B5816085BD80916E008160809383
:101B50006E001092810080918100826080938100EC
:101B600080918100816080938100809180008160FC
:101B7000809380008091B10084608093B100809157
:101B8000B00081608093B00080919100826080936A
:101B900091008091910081608093910080919000EC
:101BA0008160809390008091A10082608093A10069
:101BB0008091A10081608093A1008091A00081604C
:101BC0008093A00080912101826080932101809107
:101BD00021018160809321018091200181608093A7
:101BE000200180917A00846080937A0080917A004D
:101BF000826080937A0080917A00816080937A007D
:101C000080917A00806880937A001092C1002091C0
:101C10000402309105028FEF91E2821B930B9093A7
:101C20000102809300020E94000452DE0E94000420
:101C3000C0E0D0E02097F1F30E940000FBCF0F93AB
:101C40001F93CF93DF938230910510F482E090E0F0
:101C5000E091CB02F091CC0230E020E0B0E0A0E0D7
:101C6000309799F42115310509F44AC0281B390B26
:101C700024303105D8F58A819B816115710589F180
:101C8000FB0193838283FE0111C040815181028157
:101C9000138148175907E0F04817590799F410972E
:101CA00061F012960C93129713961C933296CF0103
:101CB000DF91CF911F910F9108950093CB02109364
:101CC000CC02F4CF2115310551F04217530738F0FB
:101CD000A901DB019A01BD01DF01F801C1CFEF01CC
:101CE000F9CF9093CC028093CB02CDCFFE01E20FCF
:101CF000F31F819391932250310939832883D7CFE1
:101D00002091C9023091CA02232B41F42091020292
:101D1000309103023093CA022093C902209100023D
:101D2000309101022115310541F42DB73EB74091A4
:101D3000040250910502241B350BE091C902F09179
:101D4000CA02E217F307A0F42E1B3F0B281739072E
:101D500078F0AC014E5F5F4F2417350748F04E0F07
:101D60005F1F5093CA024093C902819391939FCF02
:101D7000F0E0E0E09CCFCF93DF930097E9F0FC0127
:101D8000329713821282A091CB02B091CC02ED0166
:101D900030E020E01097A1F420813181820F931F61
:101DA0002091C9023091CA022817390709F061C091
:101DB000F093CA02E093C902DF91CF910895EA013E
:101DC000CE17DF07E8F54A815B819E014115510579
:101DD000B1F7E901FB83EA8349915991C40FD51FFB
:101DE000EC17FD0761F4808191810296840F951FA5
:101DF000E90199838883828193819B838A83F0E0C0
:101E0000E0E012968D919C9113970097B9F52D9172
:101E10003C911197CD010296820F931F2091C90228
:101E20003091CA022817390739F6309751F51092C8
:101E3000CC021092CB02B093CA02A093C902BCCFCD
:101E4000D383C28340815181840F951FC817D9075E
:101E500061F44E5F5F4F88819981480F591F51830C
:101E600040838A819B81938382832115310509F008
:101E7000B0CFF093CC02E093CB029ECFFD01DC010A
:101E8000C0CF13821282D7CFEE0FFF1F881F8BBFE8
:101E90000790F691E02D1994FB01DC0102C001903E
:101EA0000D9241505040D8F70895DC0101C06D9368
:0C1EB00041505040E0F70895F894FFCF37
:101EBC000000CD0280001900180017001600546DA8
:101ECC0072205376630049444C45007461736B3146
:101EDC00007461736B32007461736B3300746173E3
:041EEC006B34000053
:00000001FF
